:020000040800F2
:1000000000500020350400083304000831040008C3
:100010003104000831040008310400080000000029
:100020000000000000000000000000003304000891
:1000300033040008000000003304000851010008E8
:1000400031040008310400083104000831040008BC
:1000500031040008310400083104000831040008AC
:10006000310400083104000831040008310400089C
:10007000310400083104000831040008310400088C
:10008000310400083104000831040008310400087C
:10009000310400083104000831040008310400086C
:1000A000310400083104000831040008310400085C
:1000B000310400083104000831040008310400084C
:1000C000310400083104000831040008310400083C
:1000D000310400083104000831040008310400082C
:1000E000310400083104000831040008310400081C
:1000F000310400083104000831040008310400080C
:1001000031040008310400083104000831040008FB
:1001100031040008310400083104000831040008EB
:1001200031040008310400083104000831040008DB
:1001300031040008310400083104000831040008CB
:1001400031040008310400083104000831040008BB
:1001500010B4054CD4E90023501C43F10001C4E95C
:10016000000110BC704700BF1000002010B500F067
:1001700013F94FF4417000F04DF94FF40053002291
:100180000321114800F026F810494FF47A7000F06E
:10019000A5F900F0C6F900F0BDF90D4BD3E9000157
:1001A0000B4B18CB1A1A64EB0103B2F5FA6F73F11B
:1001B0000003F5D34FF40051034800F03AF8044B24
:1001C000D3E90001ECE700BF00100140006CDC0245
:1001D000100000202DE9F04100264FF00F0E9C4644
:1001E000036847684CFA06F4E4071BD5072E94BF52
:1001F0009846B846B4B24FEA84048ABF203CA4B201
:10020000A4B20EFA04F528EA0508A51CADB202FA5C
:1002100005F501FA04F42C4344EA0804072E94BFC0
:10022000234627460136102EDCD103604760BDE827
:10023000F081C36801EA030221EA030141EA0241B5
:1002400001617047062824D8DFE800F004090E1386
:10025000181D2000104B1868C0F3406070470E4B0B
:100260001868C0F3C06070470B4B1868C0F340704B
:100270007047094B1868C0F340407047064B186838
:10028000C0F340007047044B186AF9E7024B586A04
:10029000F6E70020704700BF00100240024608B594
:1002A0001046FFF7CFFF0028FAD008BD06282AD84D
:1002B000DFE800F0040A0F14191E2400124A136824
:1002C00043F08073136070470F4A136843F08063F4
:1002D000F8E70D4A136843F08053F3E70A4A1368BE
:1002E00043F48033EEE7084A136843F00103E9E77B
:1002F000054A136A43F0010313627047024A536AC6
:1003000043F001035362704700100240034A5368F0
:1003100023F0030303435360704700BF0010024003
:10032000034A536823F4701343EA804353607047D1
:1003300000100240034A536823F4803343EA004329
:100340005360704700100240034A536823F440434F
:1003500043EA80335360704700100240034A5368F9
:1003600023F4605343EAC0235360704700100240F7
:10037000034A536823F4E06343EA00235360704761
:1003800000100240034A536823F0F00343EA0013CD
:10039000536070470010024008B50420FFF786FF45
:1003A000FFF77CFF0020FFF7B1FFFFF7EBFF032013
:1003B000FFF7CAFF0420FFF7DBFF0020FFF7CEFFA7
:1003C0000E4A0120536843F48003536000F0B0F8F4
:1003D0000A20FFF7A5FF0020FFF7ACFFFFF766FF3D
:1003E000FFF75CFF0220FFF791FF054B054A064926
:1003F0001360064A1160064A136008BD00100240EF
:10040000006CDC020000002000366E0104000020B9
:10041000080000200122430903F1804303F504335F
:10042000196800F01F0002FA00F0084318607047D6
:10043000FEE7704738B51A4A1A4B1B498B421AD34C
:1004400000211A4A93421BD34FF0E022D2F8143D08
:10045000174C43F40073174DC2F8143DAC4212D34D
:10046000154C164DAC4212D3FFF780FE144C154DBF
:10047000AC4210D338BD52F8040B43F8040BDDE74F
:1004800043F8041BDEE754F8043B9847E6E754F8CA
:10049000043B9847E6E754F8043B9847E8E700BF79
:1004A00044050008000000200C0000201800002077
:1004B00044050008440500084405000844050008F8
:1004C00044050008440500084FF0E022136900F0DD
:1004D000040023F00403034313617047B1FBF0F100
:1004E00008B50B4B994210D86FF07F4399422ABF51
:1004F00000200420C908FFF7E7FF4FF0E0230120A8
:10050000013921F07F41596108BD0020FCE700BF9F
:10051000F7FFFF074FF0E022136943F00203136176
:1005200070474FF0E022136943F0010313617047F5
:10053000034A136823F0070303431360704700BFA7
:040540000020024055
:0C05440000127A0000127A0000127A0007
:0400000508000435B6
:00000001FF
