:020000040800F2
:1000000000500020F1030008EF030008ED03000892
:10001000ED030008ED030008ED03000800000000F8
:10002000000000000000000000000000EF030008D6
:10003000EF03000800000000EF030008EF030008D2
:10004000ED030008ED030008ED030008ED030008D0
:10005000ED030008ED030008ED030008ED030008C0
:10006000ED030008ED030008ED030008ED030008B0
:10007000ED030008ED030008ED030008ED030008A0
:10008000ED030008ED030008ED030008ED03000890
:10009000ED030008ED030008ED030008ED03000880
:1000A000ED030008ED030008ED030008ED03000870
:1000B000ED030008ED030008ED030008ED03000860
:1000C000ED030008ED030008ED030008ED03000850
:1000D000ED030008ED030008ED030008ED03000840
:1000E000ED030008ED030008ED030008ED03000830
:1000F000ED030008ED030008ED030008ED03000820
:10010000ED030008ED030008ED030008ED0300080F
:10011000ED030008ED030008ED030008ED030008FF
:10012000ED030008ED030008ED030008ED030008EF
:10013000ED030008ED030008ED030008ED030008DF
:10014000ED030008ED030008ED030008ED030008CF
:1001500008B500F0FFF84FF4417000F039F94FF4A2
:10016000005300220321084800F012F804E000BF09
:100170000133064A9342FAD94FF40051024800F085
:1001800036F80023F5E700BF001001403F420F00A2
:100190002DE9F04100264FF00F0E9C46036847689A
:1001A0004CFA06F4E4071BD5072E94BF9846B846D0
:1001B000B4B24FEA84048ABF203CA4B2A4B20EFABF
:1001C00004F528EA0508A51CADB202FA05F501FA06
:1001D00004F42C4344EA0804072E94BF2346274620
:1001E0000136102EDCD103604760BDE8F081C368A2
:1001F00001EA030221EA030141EA02410161704779
:10020000062824D8DFE800F004090E13181D20008A
:10021000104B1868C0F3406070470E4B1868C0F36D
:10022000C06070470B4B1868C0F340707047094BB3
:100230001868C0F340407047064B1868C0F3400090
:100240007047044B186AF9E7024B586AF6E700203A
:10025000704700BF00100240024608B51046FFF785
:10026000CFFF0028FAD008BD06282AD8DFE800F022
:10027000040A0F14191E2400124A136843F08073F5
:10028000136070470F4A136843F08063F8E70D4A24
:10029000136843F08053F3E70A4A136843F480334A
:1002A000EEE7084A136843F00103E9E7054A136AD9
:1002B00043F0010313627047024A536A43F001039B
:1002C0005362704700100240034A536823F003034F
:1002D00003435360704700BF00100240034A536855
:1002E00023F4701343EA80435360704700100240C8
:1002F000034A536823F4803343EA00435360704752
:1003000000100240034A536823F4404343EA803319
:100310005360704700100240034A536823F460534F
:1003200043EAC0235360704700100240034A5368F9
:1003300023F4E06343EA0023536070470010024057
:10034000034A536823F0F00343EA001353607047F5
:100350000010024008B50420FFF786FFFFF77CFF7E
:100360000020FFF7B1FFFFF7EBFF0320FFF7CAFF05
:100370000420FFF7DBFF0020FFF7CEFF0E4A01202D
:10038000536843F48003536000F07CF80A20FFF7C1
:10039000A5FF0020FFF7ACFFFFF766FFFFF75CFF4C
:1003A0000220FFF791FF054B054A06491360064AF4
:1003B0001160064A136008BD00100240006CDC02A8
:1003C0000000002000366E0104000020080000201C
:1003D0000122430903F1804303F50433196800F057
:1003E0001F0002FA00F0084318607047FEE77047EC
:1003F00038B51A4A1A4B1B498B421AD300211A4AA4
:1004000093421BD34FF0E022D2F8143D174C43F433
:100410000073174DC2F8143DAC4212D3154C164D63
:10042000AC4212D3FFF794FE144C154DAC4210D3DE
:1004300038BD52F8040B43F8040BDDE743F8041B06
:10044000DEE754F8043B9847E6E754F8043B984746
:10045000E6E754F8043B9847E8E700BF9804000833
:10046000000000200C0000200C0000209804000870
:1004700098040008980400089804000898040008EC
:1004800098040008034A136823F00703034313602A
:08049000704700BF002002408C
:0C04980000127A0000127A0000127A00B4
:04000005080003F1FB
:00000001FF
